{
  "_format": "hh-sol-artifact-1",
  "contractName": "SupplyChain",
  "sourceName": "contracts/Token.sol",
  "abi": [
    {
      "inputs": [],
      "stateMutability": "nonpayable",
      "type": "constructor"
    },
    {
      "anonymous": false,
      "inputs": [
        {
          "indexed": false,
          "internalType": "uint256",
          "name": "productID",
          "type": "uint256"
        },
        {
          "indexed": false,
          "internalType": "uint256",
          "name": "deliveryDate",
          "type": "uint256"
        }
      ],
      "name": "DeliveryDateSet",
      "type": "event"
    },
    {
      "anonymous": false,
      "inputs": [
        {
          "indexed": false,
          "internalType": "uint256",
          "name": "productID",
          "type": "uint256"
        },
        {
          "indexed": false,
          "internalType": "address",
          "name": "retailer",
          "type": "address"
        }
      ],
      "name": "ProductPurchased",
      "type": "event"
    },
    {
      "inputs": [
        {
          "internalType": "uint256",
          "name": "productID",
          "type": "uint256"
        },
        {
          "internalType": "string",
          "name": "description",
          "type": "string"
        }
      ],
      "name": "addProduct",
      "outputs": [],
      "stateMutability": "nonpayable",
      "type": "function"
    },
    {
      "inputs": [
        {
          "internalType": "uint256",
          "name": "productID",
          "type": "uint256"
        },
        {
          "internalType": "string",
          "name": "deliveryLocation",
          "type": "string"
        }
      ],
      "name": "buyProduct",
      "outputs": [],
      "stateMutability": "nonpayable",
      "type": "function"
    },
    {
      "inputs": [
        {
          "internalType": "uint256",
          "name": "productID",
          "type": "uint256"
        }
      ],
      "name": "fetchProduct",
      "outputs": [
        {
          "internalType": "uint256",
          "name": "",
          "type": "uint256"
        },
        {
          "internalType": "string",
          "name": "",
          "type": "string"
        },
        {
          "internalType": "string",
          "name": "",
          "type": "string"
        },
        {
          "internalType": "address",
          "name": "",
          "type": "address"
        },
        {
          "internalType": "string",
          "name": "",
          "type": "string"
        },
        {
          "internalType": "uint256",
          "name": "",
          "type": "uint256"
        }
      ],
      "stateMutability": "view",
      "type": "function"
    },
    {
      "inputs": [],
      "name": "getAllBatches",
      "outputs": [
        {
          "components": [
            {
              "internalType": "uint256",
              "name": "productID",
              "type": "uint256"
            },
            {
              "internalType": "string",
              "name": "description",
              "type": "string"
            },
            {
              "internalType": "string",
              "name": "status",
              "type": "string"
            },
            {
              "internalType": "address",
              "name": "retailer",
              "type": "address"
            },
            {
              "internalType": "string",
              "name": "deliveryLocation",
              "type": "string"
            },
            {
              "internalType": "uint256",
              "name": "deliveryDate",
              "type": "uint256"
            }
          ],
          "internalType": "struct SupplyChain.Product[]",
          "name": "",
          "type": "tuple[]"
        }
      ],
      "stateMutability": "view",
      "type": "function"
    },
    {
      "inputs": [],
      "name": "getOwner",
      "outputs": [
        {
          "internalType": "address",
          "name": "",
          "type": "address"
        }
      ],
      "stateMutability": "view",
      "type": "function"
    },
    {
      "inputs": [
        {
          "internalType": "uint256",
          "name": "productID",
          "type": "uint256"
        },
        {
          "internalType": "uint256",
          "name": "deliveryDate",
          "type": "uint256"
        }
      ],
      "name": "setDeliveryDate",
      "outputs": [],
      "stateMutability": "nonpayable",
      "type": "function"
    }
  ],
  "bytecode": "0x6080604052348015600f57600080fd5b50336000806101000a81548173ffffffffffffffffffffffffffffffffffffffff021916908373ffffffffffffffffffffffffffffffffffffffff160217905550611ccf8061005f6000396000f3fe608060405234801561001057600080fd5b50600436106100625760003560e01c80630cb28a531461006757806323cd950a1461009c578063500ce6b4146100b8578063893d20e8146100d4578063e80e076b146100f2578063eb064d6214610110575b600080fd5b610081600480360381019061007c9190610ea5565b61012c565b60405161009396959493929190610fb2565b60405180910390f35b6100b660048036038101906100b1919061115d565b610405565b005b6100d260048036038101906100cd919061115d565b6105b9565b005b6100dc6107cf565b6040516100e991906111b9565b60405180910390f35b6100fa6107f8565b6040516101079190611395565b60405180910390f35b61012a600480360381019061012591906113b7565b610af7565b005b60006060806000606060008060016000898152602001908152602001600020600001540361018f576040517f08c379a000000000000000000000000000000000000000000000000000000000815260040161018690611443565b60405180910390fd5b6000600160008981526020019081526020016000206040518060c0016040529081600082015481526020016001820180546101c990611492565b80601f01602080910402602001604051908101604052809291908181526020018280546101f590611492565b80156102425780601f1061021757610100808354040283529160200191610242565b820191906000526020600020905b81548152906001019060200180831161022557829003601f168201915b5050505050815260200160028201805461025b90611492565b80601f016020809104026020016040519081016040528092919081815260200182805461028790611492565b80156102d45780601f106102a9576101008083540402835291602001916102d4565b820191906000526020600020905b8154815290600101906020018083116102b757829003601f168201915b505050505081526020016003820160009054906101000a900473ffffffffffffffffffffffffffffffffffffffff1673ffffffffffffffffffffffffffffffffffffffff1673ffffffffffffffffffffffffffffffffffffffff16815260200160048201805461034390611492565b80601f016020809104026020016040519081016040528092919081815260200182805461036f90611492565b80156103bc5780601f10610391576101008083540402835291602001916103bc565b820191906000526020600020905b81548152906001019060200180831161039f57829003601f168201915b505050505081526020016005820154815250509050806000015181602001518260400151836060015184608001518560a001519650965096509650965096505091939550919395565b600060016000848152602001908152602001600020600001541461045e576040517f08c379a00000000000000000000000000000000000000000000000000000000081526004016104559061150f565b60405180910390fd5b6040518060c0016040528083815260200182815260200161047e42610caf565b60405160200161048e91906115b7565b6040516020818303038152906040528152602001600073ffffffffffffffffffffffffffffffffffffffff16815260200160405180602001604052806000815250815260200160008152506001600084815260200190815260200160002060008201518160000155602082015181600101908161050b9190611785565b5060408201518160020190816105219190611785565b5060608201518160030160006101000a81548173ffffffffffffffffffffffffffffffffffffffff021916908373ffffffffffffffffffffffffffffffffffffffff160217905550608082015181600401908161057e9190611785565b5060a0820151816005015590505060028290806001815401808255809150506001900390600052602060002001600090919091909150555050565b6000600160008481526020019081526020016000206000015403610612576040517f08c379a000000000000000000000000000000000000000000000000000000000815260040161060990611443565b60405180910390fd5b600073ffffffffffffffffffffffffffffffffffffffff166001600084815260200190815260200160002060030160009054906101000a900473ffffffffffffffffffffffffffffffffffffffff1673ffffffffffffffffffffffffffffffffffffffff16146106b7576040517f08c379a00000000000000000000000000000000000000000000000000000000081526004016106ae906118a3565b60405180910390fd5b336001600084815260200190815260200160002060030160006101000a81548173ffffffffffffffffffffffffffffffffffffffff021916908373ffffffffffffffffffffffffffffffffffffffff1602179055508060016000848152602001908152602001600020600401908161072f9190611785565b506001600083815260200190815260200160002060020161074f42610caf565b604051602001610760929190611992565b6040516020818303038152906040526001600084815260200190815260200160002060020190816107919190611785565b507f9ad4ecfaf27ea0cbeebee0ed92fe15c8a84975f1e3d45ccfc526d7751dcf98ff82336040516107c39291906119c1565b60405180910390a15050565b60008060009054906101000a900473ffffffffffffffffffffffffffffffffffffffff16905090565b60606000600280549050905060008167ffffffffffffffff8111156108205761081f611032565b5b60405190808252806020026020018201604052801561085957816020015b610846610e0f565b81526020019060019003908161083e5790505b50905060005b82811015610aee57600160006002838154811061087f5761087e6119ea565b5b906000526020600020015481526020019081526020016000206040518060c0016040529081600082015481526020016001820180546108bd90611492565b80601f01602080910402602001604051908101604052809291908181526020018280546108e990611492565b80156109365780601f1061090b57610100808354040283529160200191610936565b820191906000526020600020905b81548152906001019060200180831161091957829003601f168201915b5050505050815260200160028201805461094f90611492565b80601f016020809104026020016040519081016040528092919081815260200182805461097b90611492565b80156109c85780601f1061099d576101008083540402835291602001916109c8565b820191906000526020600020905b8154815290600101906020018083116109ab57829003601f168201915b505050505081526020016003820160009054906101000a900473ffffffffffffffffffffffffffffffffffffffff1673ffffffffffffffffffffffffffffffffffffffff1673ffffffffffffffffffffffffffffffffffffffff168152602001600482018054610a3790611492565b80601f0160208091040260200160405190810160405280929190818152602001828054610a6390611492565b8015610ab05780601f10610a8557610100808354040283529160200191610ab0565b820191906000526020600020905b815481529060010190602001808311610a9357829003601f168201915b50505050508152602001600582015481525050828281518110610ad657610ad56119ea565b5b6020026020010181905250808060010191505061085f565b50809250505090565b6000600160008481526020019081526020016000206000015403610b50576040517f08c379a0000000000000000000000000000000000000000000000000000000008152600401610b4790611443565b60405180910390fd5b600073ffffffffffffffffffffffffffffffffffffffff166001600084815260200190815260200160002060030160009054906101000a900473ffffffffffffffffffffffffffffffffffffffff1673ffffffffffffffffffffffffffffffffffffffff1603610bf5576040517f08c379a0000000000000000000000000000000000000000000000000000000008152600401610bec90611a65565b60405180910390fd5b80600160008481526020019081526020016000206005018190555060016000838152602001908152602001600020600201610c2f42610caf565b604051602001610c40929190611ad1565b604051602081830303815290604052600160008481526020019081526020016000206002019081610c719190611785565b507f9dbf96f129a668516d69357a3490c77d2bf8c66bbb54292bce1595f86b18700c8282604051610ca3929190611b00565b60405180910390a15050565b606060008203610cf6576040518060400160405280600181526020017f30000000000000000000000000000000000000000000000000000000000000008152509050610e0a565b600082905060005b60008214610d28578080610d1190611b58565b915050600a82610d219190611bcf565b9150610cfe565b60008167ffffffffffffffff811115610d4457610d43611032565b5b6040519080825280601f01601f191660200182016040528015610d765781602001600182028036833780820191505090505b5090505b60008514610e0357600182610d8f9190611c00565b9150600a85610d9e9190611c34565b6030610daa9190611c65565b60f81b818381518110610dc057610dbf6119ea565b5b60200101907effffffffffffffffffffffffffffffffffffffffffffffffffffffffffffff1916908160001a905350600a85610dfc9190611bcf565b9450610d7a565b8093505050505b919050565b6040518060c00160405280600081526020016060815260200160608152602001600073ffffffffffffffffffffffffffffffffffffffff16815260200160608152602001600081525090565b6000604051905090565b600080fd5b600080fd5b6000819050919050565b610e8281610e6f565b8114610e8d57600080fd5b50565b600081359050610e9f81610e79565b92915050565b600060208284031215610ebb57610eba610e65565b5b6000610ec984828501610e90565b91505092915050565b610edb81610e6f565b82525050565b600081519050919050565b600082825260208201905092915050565b60005b83811015610f1b578082015181840152602081019050610f00565b60008484015250505050565b6000601f19601f8301169050919050565b6000610f4382610ee1565b610f4d8185610eec565b9350610f5d818560208601610efd565b610f6681610f27565b840191505092915050565b600073ffffffffffffffffffffffffffffffffffffffff82169050919050565b6000610f9c82610f71565b9050919050565b610fac81610f91565b82525050565b600060c082019050610fc76000830189610ed2565b8181036020830152610fd98188610f38565b90508181036040830152610fed8187610f38565b9050610ffc6060830186610fa3565b818103608083015261100e8185610f38565b905061101d60a0830184610ed2565b979650505050505050565b600080fd5b600080fd5b7f4e487b7100000000000000000000000000000000000000000000000000000000600052604160045260246000fd5b61106a82610f27565b810181811067ffffffffffffffff8211171561108957611088611032565b5b80604052505050565b600061109c610e5b565b90506110a88282611061565b919050565b600067ffffffffffffffff8211156110c8576110c7611032565b5b6110d182610f27565b9050602081019050919050565b82818337600083830152505050565b60006111006110fb846110ad565b611092565b90508281526020810184848401111561111c5761111b61102d565b5b6111278482856110de565b509392505050565b600082601f83011261114457611143611028565b5b81356111548482602086016110ed565b91505092915050565b6000806040838503121561117457611173610e65565b5b600061118285828601610e90565b925050602083013567ffffffffffffffff8111156111a3576111a2610e6a565b5b6111af8582860161112f565b9150509250929050565b60006020820190506111ce6000830184610fa3565b92915050565b600081519050919050565b600082825260208201905092915050565b6000819050602082019050919050565b61120981610e6f565b82525050565b600082825260208201905092915050565b600061122b82610ee1565b611235818561120f565b9350611245818560208601610efd565b61124e81610f27565b840191505092915050565b61126281610f91565b82525050565b600060c0830160008301516112806000860182611200565b50602083015184820360208601526112988282611220565b915050604083015184820360408601526112b28282611220565b91505060608301516112c76060860182611259565b50608083015184820360808601526112df8282611220565b91505060a08301516112f460a0860182611200565b508091505092915050565b600061130b8383611268565b905092915050565b6000602082019050919050565b600061132b826111d4565b61133581856111df565b935083602082028501611347856111f0565b8060005b85811015611383578484038952815161136485826112ff565b945061136f83611313565b925060208a0199505060018101905061134b565b50829750879550505050505092915050565b600060208201905081810360008301526113af8184611320565b905092915050565b600080604083850312156113ce576113cd610e65565b5b60006113dc85828601610e90565b92505060206113ed85828601610e90565b9150509250929050565b7f50726f64756374206e6f7420666f756e64000000000000000000000000000000600082015250565b600061142d601183610eec565b9150611438826113f7565b602082019050919050565b6000602082019050818103600083015261145c81611420565b9050919050565b7f4e487b7100000000000000000000000000000000000000000000000000000000600052602260045260246000fd5b600060028204905060018216806114aa57607f821691505b6020821081036114bd576114bc611463565b5b50919050565b7f50726f6475637420616c72656164792065786973747300000000000000000000600082015250565b60006114f9601683610eec565b9150611504826114c3565b602082019050919050565b60006020820190508181036000830152611528816114ec565b9050919050565b600081905092915050565b7f696e76656e746f7279202d200000000000000000000000000000000000000000600082015250565b6000611570600c8361152f565b915061157b8261153a565b600c82019050919050565b600061159182610ee1565b61159b818561152f565b93506115ab818560208601610efd565b80840191505092915050565b60006115c282611563565b91506115ce8284611586565b915081905092915050565b60008190508160005260206000209050919050565b60006020601f8301049050919050565b600082821b905092915050565b60006008830261163b7fffffffffffffffffffffffffffffffffffffffffffffffffffffffffffffffff826115fe565b61164586836115fe565b95508019841693508086168417925050509392505050565b6000819050919050565b600061168261167d61167884610e6f565b61165d565b610e6f565b9050919050565b6000819050919050565b61169c83611667565b6116b06116a882611689565b84845461160b565b825550505050565b600090565b6116c56116b8565b6116d0818484611693565b505050565b5b818110156116f4576116e96000826116bd565b6001810190506116d6565b5050565b601f8211156117395761170a816115d9565b611713846115ee565b81016020851015611722578190505b61173661172e856115ee565b8301826116d5565b50505b505050565b600082821c905092915050565b600061175c6000198460080261173e565b1980831691505092915050565b6000611775838361174b565b9150826002028217905092915050565b61178e82610ee1565b67ffffffffffffffff8111156117a7576117a6611032565b5b6117b18254611492565b6117bc8282856116f8565b600060209050601f8311600181146117ef57600084156117dd578287015190505b6117e78582611769565b86555061184f565b601f1984166117fd866115d9565b60005b8281101561182557848901518255600182019150602085019450602081019050611800565b86831015611842578489015161183e601f89168261174b565b8355505b6001600288020188555050505b505050505050565b7f50726f6475637420616c72656164792070757263686173656400000000000000600082015250565b600061188d601983610eec565b915061189882611857565b602082019050919050565b600060208201905081810360008301526118bc81611880565b9050919050565b600081546118d081611492565b6118da818661152f565b945060018216600081146118f5576001811461190a5761193d565b60ff198316865281151582028601935061193d565b611913856115d9565b60005b8381101561193557815481890152600182019150602081019050611916565b838801955050505b50505092915050565b7f202d3e207075726368617365642062792072657461696c6572202d2000000000600082015250565b600061197c601c8361152f565b915061198782611946565b601c82019050919050565b600061199e82856118c3565b91506119a98261196f565b91506119b58284611586565b91508190509392505050565b60006040820190506119d66000830185610ed2565b6119e36020830184610fa3565b9392505050565b7f4e487b7100000000000000000000000000000000000000000000000000000000600052603260045260246000fd5b7f50726f64756374206e6f74207965742070757263686173656400000000000000600082015250565b6000611a4f601983610eec565b9150611a5a82611a19565b602082019050919050565b60006020820190508181036000830152611a7e81611a42565b9050919050565b7f202d3e2064656c6976657279206461746520736574202d200000000000000000600082015250565b6000611abb60188361152f565b9150611ac682611a85565b601882019050919050565b6000611add82856118c3565b9150611ae882611aae565b9150611af48284611586565b91508190509392505050565b6000604082019050611b156000830185610ed2565b611b226020830184610ed2565b9392505050565b7f4e487b7100000000000000000000000000000000000000000000000000000000600052601160045260246000fd5b6000611b6382610e6f565b91507fffffffffffffffffffffffffffffffffffffffffffffffffffffffffffffffff8203611b9557611b94611b29565b5b600182019050919050565b7f4e487b7100000000000000000000000000000000000000000000000000000000600052601260045260246000fd5b6000611bda82610e6f565b9150611be583610e6f565b925082611bf557611bf4611ba0565b5b828204905092915050565b6000611c0b82610e6f565b9150611c1683610e6f565b9250828203905081811115611c2e57611c2d611b29565b5b92915050565b6000611c3f82610e6f565b9150611c4a83610e6f565b925082611c5a57611c59611ba0565b5b828206905092915050565b6000611c7082610e6f565b9150611c7b83610e6f565b9250828201905080821115611c9357611c92611b29565b5b9291505056fea264697066735822122064cf6b6f2969827771fbe2daa02883f80177e300a3398e382f255d76c2d8a13b64736f6c634300081b0033",
  "linkReferences": {},
  "deployedLinkReferences": {}
}